{
  "contractName": "Stake",
  "abi": [
    {
      "constant": true,
      "inputs": [],
      "name": "totalHeart",
      "outputs": [
        {
          "name": "",
          "type": "uint256"
        }
      ],
      "payable": false,
      "stateMutability": "view",
      "type": "function"
    },
    {
      "constant": true,
      "inputs": [
        {
          "name": "",
          "type": "uint64"
        }
      ],
      "name": "novelHeart",
      "outputs": [
        {
          "name": "",
          "type": "uint64"
        }
      ],
      "payable": false,
      "stateMutability": "view",
      "type": "function"
    },
    {
      "inputs": [],
      "payable": false,
      "stateMutability": "nonpayable",
      "type": "constructor"
    },
    {
      "anonymous": false,
      "inputs": [
        {
          "indexed": false,
          "name": "novel",
          "type": "uint64"
        },
        {
          "indexed": false,
          "name": "novelHeart",
          "type": "uint64"
        },
        {
          "indexed": false,
          "name": "totalHeart",
          "type": "uint256"
        }
      ],
      "name": "HeartChanged",
      "type": "event"
    },
    {
      "constant": false,
      "inputs": [
        {
          "name": "novel",
          "type": "uint64"
        },
        {
          "name": "heart",
          "type": "uint64"
        }
      ],
      "name": "setHeart",
      "outputs": [],
      "payable": false,
      "stateMutability": "nonpayable",
      "type": "function"
    }
  ],
  "bytecode": "0x608060405234801561001057600080fd5b50336000806101000a81548173ffffffffffffffffffffffffffffffffffffffff021916908373ffffffffffffffffffffffffffffffffffffffff160217905550610312806100606000396000f300608060405260043610610057576000357c0100000000000000000000000000000000000000000000000000000000900463ffffffff168063af3cc2c51461005c578063de45be2514610087578063f1889ca7146100e6575b600080fd5b34801561006857600080fd5b50610071610131565b6040518082815260200191505060405180910390f35b34801561009357600080fd5b506100bc600480360381019080803567ffffffffffffffff169060200190929190505050610137565b604051808267ffffffffffffffff1667ffffffffffffffff16815260200191505060405180910390f35b3480156100f257600080fd5b5061012f600480360381019080803567ffffffffffffffff169060200190929190803567ffffffffffffffff16906020019092919050505061015e565b005b60015481565b60026020528060005260406000206000915054906101000a900467ffffffffffffffff1681565b6000809054906101000a900473ffffffffffffffffffffffffffffffffffffffff1673ffffffffffffffffffffffffffffffffffffffff163373ffffffffffffffffffffffffffffffffffffffff161415156101b657fe5b600260008367ffffffffffffffff1667ffffffffffffffff16815260200190815260200160002060009054906101000a900467ffffffffffffffff1667ffffffffffffffff1660016000828254039250508190555080600260008467ffffffffffffffff1667ffffffffffffffff16815260200190815260200160002060006101000a81548167ffffffffffffffff021916908367ffffffffffffffff160217905567ffffffffffffffff166001600082825401925050819055507f9e04daec0e50cd1ecbb8467783761e6591b7510b5e2246a95ad87c4a11b04ad48282600154604051808467ffffffffffffffff1667ffffffffffffffff1681526020018367ffffffffffffffff1667ffffffffffffffff168152602001828152602001935050505060405180910390a150505600a165627a7a723058205f8918d1a7d699880839f315f8b6a033be324286ca8c0b7ad93bf546a54f33510029",
  "source": "\r\npragma solidity ^0.4.24;\r\n\r\ncontract Stake {\r\n\t\r\n\tevent HeartChanged(uint64 novel, uint64 novelHeart, uint totalHeart);\r\n\r\n\taddress private platform;\r\n\r\n\tuint public totalHeart;\r\n\tmapping(uint64 => uint64) public novelHeart;\r\n\r\n\tconstructor() public {\r\n\t\tplatform = msg.sender;\r\n\t}\r\n\r\n\tfunction setHeart(uint64 novel, uint64 heart) public {\r\n\t\tassert(msg.sender == platform);\r\n\r\n\t\ttotalHeart -= novelHeart[novel];\r\n\t\ttotalHeart += novelHeart[novel] = heart;\r\n\r\n\t\temit HeartChanged(novel, heart, totalHeart);\r\n\t}\r\n}",
  "sourcePath": "D:\\Develop\\Node.js\\PlotChain_Contract\\contracts\\Stake.sol",
  "compiler": {
    "name": "solc",
    "version": "0.4.24+commit.e67f0147.Emscripten.clang"
  },
  "schemaVersion": "2.0.1",
  "updatedAt": "2018-08-23T11:35:28.766Z"
}